:100000000C9434000C943E000C943E000C943E0082
:100010000C943E000C943E000C943E000C943E0068
:100020000C943E000C943E000C943E000C943E0058
:100030000C943E000C943E000C943E000C943E0048
:100040000C943E000C943E000C943E000C943E0038
:100050000C943E000C943E000C943E000C943E0028
:100060000C943E000C943E0011241FBECFEFD8E04C
:10007000DEBFCDBF0E9440000C9408020C9400002B
:10008000CF93DF93CDB7DEB7A2970FB6F894DEBF5C
:100090000FBECDBF84E290E0DC012C9184E290E0C1
:1000A0002160FC01208385E290E0DC013C9185E247
:1000B00090E021E02327FC01208380E090E0AAEF7C
:1000C000B3E489839A83AB83BC8320E030E04AEFBA
:1000D00054E469817A818B819C810E9473016B8BCE
:1000E0007C8B8D8B9E8B8B899C89AD89BE898D8302
:1000F0009E83AF83B88720E030E040E85FE36D8106
:100100007E818F8198850E94ED0088232CF481E008
:1001100090E09A87898755C020E03FEF4FE757E48A
:100120006D817E818F8198850E946E018823D9F12F
:10013000D4F120E030E040E251E469817A818B81A2
:100140009C810E9473016F8B788F898F9A8F8F8922
:10015000988DA98DBA8D8F87988BA98BBA8B6F8557
:10016000788989899A890E94F2006B8F7C8F8D8FA4
:100170009E8FAB8DBC8DBA87A98710C088EC90E0AC
:100180009C878B878B859C850197F1F79C878B8754
:10019000000089859A8501979A87898789859A853C
:1001A000009761F719C06D817E818F8198850E94CB
:1001B000F2006F8F78A389A39AA3EF8DF8A1FA8735
:1001C000E98789859A859E878D878D859E8501978C
:1001D000F1F79E878D87000066CF0E94210108F409
:1001E00081E008950E944D0188F09F5798F0B92F43
:1001F0009927B751B0F0E1F0660F771F881F991F5C
:100200001AF0BA95C9F714C0B13091F00E94670195
:10021000B1E008950C946701672F782F8827B85FA5
:1002200039F0B93FCCF3869577956795B395D9F7B3
:100230003EF490958095709561957F4F8F4F9F4FBD
:100240000895990F0008550FAA0BE0E8FEEF161667
:100250001706E807F907C0F012161306E407F507BA
:1002600098F0621B730B840B950B39F40A2661F02E
:10027000232B242B252B21F408950A2609F4A140D1
:10028000A6958FEF811D811D089557FD9058440F4D
:10029000551F59F05F3F71F04795880F97FB991FE5
:1002A00061F09F3F79F087950895121613061406A2
:1002B000551FF2CF4695F1DF08C01616170618062F
:1002C000991FF1CF86957105610508940895E8940A
:1002D000BB2766277727CB0197F908950E94210154
:1002E00008F48FEF08950E9486010C94F7010E9494
:1002F000E90138F00E94F00120F0952311F00C94F0
:10030000E0010C94E60111240C9468010E9445015F
:1003100070F3959FC1F3950F50E0551F629FF00158
:10032000729FBB27F00DB11D639FAA27F00DB11D71
:10033000AA1F649F6627B00DA11D661F829F2227FA
:10034000B00DA11D621F739FB00DA11D621F839F81
:10035000A00D611D221F749F3327A00D611D231F57
:10036000849F600D211D822F762F6A2F11249F57A5
:1003700050409AF0F1F088234AF0EE0FFF1FBB1FA8
:10038000661F771F881F91505040A9F79E3F510567
:1003900080F00C94E0010C9468015F3FE4F3983E18
:1003A000D4F3869577956795B795F795E7959F5F11
:1003B000C1F7FE2B880F911D9695879597F90895A3
:1003C00097F99F6780E870E060E008959FEF80EC08
:1003D000089500240A9416161706180609060895AB
:1003E00000240A9412161306140605060895092E11
:1003F0000394000C11F4882352F0BB0F40F4BF2B80
:1004000011F460FF04C06F5F7F4F8F4F9F4F0895BF
:04041000F894FFCF8E
:00000001FF
